{
  "address": "0xD472cA4A67ec7B803D41B0a2Ac71464D40B12992",
  "abi": [
    {
      "inputs": [
        {
          "internalType": "address",
          "name": "_defaultAdmin",
          "type": "address"
        },
        {
          "internalType": "address",
          "name": "_token",
          "type": "address"
        }
      ],
      "stateMutability": "nonpayable",
      "type": "constructor"
    },
    {
      "anonymous": false,
      "inputs": [
        {
          "indexed": true,
          "internalType": "address",
          "name": "participant",
          "type": "address"
        },
        {
          "indexed": false,
          "internalType": "uint256",
          "name": "amount",
          "type": "uint256"
        }
      ],
      "name": "AmountWithdrawn",
      "type": "event"
    },
    {
      "anonymous": false,
      "inputs": [
        {
          "components": [
            {
              "internalType": "uint32",
              "name": "communityId",
              "type": "uint32"
            },
            {
              "internalType": "uint32",
              "name": "participantIndex",
              "type": "uint32"
            },
            {
              "internalType": "uint256",
              "name": "amountEarned",
              "type": "uint256"
            },
            {
              "internalType": "uint256",
              "name": "amountPaid",
              "type": "uint256"
            }
          ],
          "indexed": false,
          "internalType": "struct IDecentralizedEnergyCommunity.ParticipantSettlement[]",
          "name": "settlements",
          "type": "tuple[]"
        }
      ],
      "name": "CommunityBalancesSettled",
      "type": "event"
    },
    {
      "anonymous": false,
      "inputs": [
        {
          "indexed": true,
          "internalType": "uint32",
          "name": "communityId",
          "type": "uint32"
        },
        {
          "indexed": true,
          "internalType": "address",
          "name": "creator",
          "type": "address"
        },
        {
          "components": [
            {
              "internalType": "enum IDecentralizedEnergyCommunity.MeterType",
              "name": "meterType",
              "type": "uint8"
            },
            {
              "internalType": "bytes32",
              "name": "meterEAN",
              "type": "bytes32"
            }
          ],
          "indexed": false,
          "internalType": "struct IDecentralizedEnergyCommunity.Meter[]",
          "name": "meters",
          "type": "tuple[]"
        },
        {
          "indexed": false,
          "internalType": "uint256",
          "name": "escrowAmount",
          "type": "uint256"
        }
      ],
      "name": "CommunityCreated",
      "type": "event"
    },
    {
      "anonymous": false,
      "inputs": [
        {
          "indexed": true,
          "internalType": "uint32",
          "name": "communityId",
          "type": "uint32"
        },
        {
          "indexed": true,
          "internalType": "address",
          "name": "participant",
          "type": "address"
        },
        {
          "components": [
            {
              "internalType": "enum IDecentralizedEnergyCommunity.MeterType",
              "name": "meterType",
              "type": "uint8"
            },
            {
              "internalType": "bytes32",
              "name": "meterEAN",
              "type": "bytes32"
            }
          ],
          "indexed": false,
          "internalType": "struct IDecentralizedEnergyCommunity.Meter[]",
          "name": "meters",
          "type": "tuple[]"
        },
        {
          "indexed": false,
          "internalType": "uint256",
          "name": "escrowAmount",
          "type": "uint256"
        }
      ],
      "name": "CommunityJoined",
      "type": "event"
    },
    {
      "anonymous": false,
      "inputs": [
        {
          "indexed": true,
          "internalType": "uint32",
          "name": "communityId",
          "type": "uint32"
        },
        {
          "indexed": true,
          "internalType": "uint32",
          "name": "participantIndex",
          "type": "uint32"
        },
        {
          "components": [
            {
              "internalType": "enum IDecentralizedEnergyCommunity.MeterType",
              "name": "meterType",
              "type": "uint8"
            },
            {
              "internalType": "bytes32",
              "name": "meterEAN",
              "type": "bytes32"
            }
          ],
          "indexed": false,
          "internalType": "struct IDecentralizedEnergyCommunity.Meter",
          "name": "meter",
          "type": "tuple"
        }
      ],
      "name": "MeterAddedToParticipant",
      "type": "event"
    },
    {
      "anonymous": false,
      "inputs": [
        {
          "indexed": true,
          "internalType": "bytes32",
          "name": "role",
          "type": "bytes32"
        },
        {
          "indexed": true,
          "internalType": "bytes32",
          "name": "previousAdminRole",
          "type": "bytes32"
        },
        {
          "indexed": true,
          "internalType": "bytes32",
          "name": "newAdminRole",
          "type": "bytes32"
        }
      ],
      "name": "RoleAdminChanged",
      "type": "event"
    },
    {
      "anonymous": false,
      "inputs": [
        {
          "indexed": true,
          "internalType": "bytes32",
          "name": "role",
          "type": "bytes32"
        },
        {
          "indexed": true,
          "internalType": "address",
          "name": "account",
          "type": "address"
        },
        {
          "indexed": true,
          "internalType": "address",
          "name": "sender",
          "type": "address"
        }
      ],
      "name": "RoleGranted",
      "type": "event"
    },
    {
      "anonymous": false,
      "inputs": [
        {
          "indexed": true,
          "internalType": "bytes32",
          "name": "role",
          "type": "bytes32"
        },
        {
          "indexed": true,
          "internalType": "address",
          "name": "account",
          "type": "address"
        },
        {
          "indexed": true,
          "internalType": "address",
          "name": "sender",
          "type": "address"
        }
      ],
      "name": "RoleRevoked",
      "type": "event"
    },
    {
      "inputs": [],
      "name": "DEFAULT_ADMIN_ROLE",
      "outputs": [
        {
          "internalType": "bytes32",
          "name": "",
          "type": "bytes32"
        }
      ],
      "stateMutability": "view",
      "type": "function"
    },
    {
      "inputs": [],
      "name": "MAX_PARTICIPANTES_PER_COMMUNITY",
      "outputs": [
        {
          "internalType": "uint256",
          "name": "",
          "type": "uint256"
        }
      ],
      "stateMutability": "view",
      "type": "function"
    },
    {
      "inputs": [],
      "name": "MAX_SETTLEMENTS",
      "outputs": [
        {
          "internalType": "uint256",
          "name": "",
          "type": "uint256"
        }
      ],
      "stateMutability": "view",
      "type": "function"
    },
    {
      "inputs": [],
      "name": "SETTLEMENT_ADMIN_ROLE",
      "outputs": [
        {
          "internalType": "bytes32",
          "name": "",
          "type": "bytes32"
        }
      ],
      "stateMutability": "view",
      "type": "function"
    },
    {
      "inputs": [
        {
          "internalType": "uint32",
          "name": "_communityId",
          "type": "uint32"
        },
        {
          "internalType": "uint32",
          "name": "_participantIndex",
          "type": "uint32"
        },
        {
          "components": [
            {
              "internalType": "enum IDecentralizedEnergyCommunity.MeterType",
              "name": "meterType",
              "type": "uint8"
            },
            {
              "internalType": "bytes32",
              "name": "meterEAN",
              "type": "bytes32"
            }
          ],
          "internalType": "struct IDecentralizedEnergyCommunity.Meter",
          "name": "_newMeter",
          "type": "tuple"
        }
      ],
      "name": "addMeterToParticipant",
      "outputs": [],
      "stateMutability": "nonpayable",
      "type": "function"
    },
    {
      "inputs": [
        {
          "internalType": "address",
          "name": "",
          "type": "address"
        }
      ],
      "name": "balances",
      "outputs": [
        {
          "internalType": "uint256",
          "name": "",
          "type": "uint256"
        }
      ],
      "stateMutability": "view",
      "type": "function"
    },
    {
      "inputs": [
        {
          "internalType": "uint32",
          "name": "",
          "type": "uint32"
        }
      ],
      "name": "communities",
      "outputs": [
        {
          "internalType": "uint32",
          "name": "id",
          "type": "uint32"
        },
        {
          "internalType": "bool",
          "name": "active",
          "type": "bool"
        },
        {
          "internalType": "bool",
          "name": "hasProducer",
          "type": "bool"
        },
        {
          "internalType": "uint32",
          "name": "participantCount",
          "type": "uint32"
        }
      ],
      "stateMutability": "view",
      "type": "function"
    },
    {
      "inputs": [],
      "name": "communityIds",
      "outputs": [
        {
          "internalType": "uint32",
          "name": "",
          "type": "uint32"
        }
      ],
      "stateMutability": "view",
      "type": "function"
    },
    {
      "inputs": [
        {
          "internalType": "uint32",
          "name": "_communityId",
          "type": "uint32"
        }
      ],
      "name": "communityIsActive",
      "outputs": [
        {
          "internalType": "bool",
          "name": "",
          "type": "bool"
        }
      ],
      "stateMutability": "view",
      "type": "function"
    },
    {
      "inputs": [
        {
          "components": [
            {
              "internalType": "enum IDecentralizedEnergyCommunity.MeterType",
              "name": "meterType",
              "type": "uint8"
            },
            {
              "internalType": "bytes32",
              "name": "meterEAN",
              "type": "bytes32"
            }
          ],
          "internalType": "struct IDecentralizedEnergyCommunity.Meter[]",
          "name": "_meters",
          "type": "tuple[]"
        },
        {
          "internalType": "uint256",
          "name": "_escrowAmount",
          "type": "uint256"
        }
      ],
      "name": "createCommunity",
      "outputs": [],
      "stateMutability": "nonpayable",
      "type": "function"
    },
    {
      "inputs": [
        {
          "internalType": "bytes32",
          "name": "",
          "type": "bytes32"
        }
      ],
      "name": "existingMeters",
      "outputs": [
        {
          "internalType": "bool",
          "name": "",
          "type": "bool"
        }
      ],
      "stateMutability": "view",
      "type": "function"
    },
    {
      "inputs": [
        {
          "internalType": "uint256",
          "name": "value",
          "type": "uint256"
        },
        {
          "internalType": "bytes32",
          "name": "salt",
          "type": "bytes32"
        }
      ],
      "name": "generateHash",
      "outputs": [
        {
          "internalType": "bytes32",
          "name": "generatedHash",
          "type": "bytes32"
        }
      ],
      "stateMutability": "view",
      "type": "function"
    },
    {
      "inputs": [
        {
          "internalType": "bytes32",
          "name": "role",
          "type": "bytes32"
        }
      ],
      "name": "getRoleAdmin",
      "outputs": [
        {
          "internalType": "bytes32",
          "name": "",
          "type": "bytes32"
        }
      ],
      "stateMutability": "view",
      "type": "function"
    },
    {
      "inputs": [
        {
          "internalType": "bytes32",
          "name": "role",
          "type": "bytes32"
        },
        {
          "internalType": "address",
          "name": "account",
          "type": "address"
        }
      ],
      "name": "grantRole",
      "outputs": [],
      "stateMutability": "nonpayable",
      "type": "function"
    },
    {
      "inputs": [
        {
          "internalType": "bytes32",
          "name": "role",
          "type": "bytes32"
        },
        {
          "internalType": "address",
          "name": "account",
          "type": "address"
        }
      ],
      "name": "hasRole",
      "outputs": [
        {
          "internalType": "bool",
          "name": "",
          "type": "bool"
        }
      ],
      "stateMutability": "view",
      "type": "function"
    },
    {
      "inputs": [
        {
          "internalType": "uint32",
          "name": "_communityId",
          "type": "uint32"
        },
        {
          "components": [
            {
              "internalType": "enum IDecentralizedEnergyCommunity.MeterType",
              "name": "meterType",
              "type": "uint8"
            },
            {
              "internalType": "bytes32",
              "name": "meterEAN",
              "type": "bytes32"
            }
          ],
          "internalType": "struct IDecentralizedEnergyCommunity.Meter[]",
          "name": "_meters",
          "type": "tuple[]"
        },
        {
          "internalType": "uint256",
          "name": "_escrowAmount",
          "type": "uint256"
        }
      ],
      "name": "joinCommunity",
      "outputs": [],
      "stateMutability": "nonpayable",
      "type": "function"
    },
    {
      "inputs": [],
      "name": "minEscrowAmount",
      "outputs": [
        {
          "internalType": "uint256",
          "name": "",
          "type": "uint256"
        }
      ],
      "stateMutability": "view",
      "type": "function"
    },
    {
      "inputs": [
        {
          "internalType": "address",
          "name": "",
          "type": "address"
        }
      ],
      "name": "participantAddressToCommunity",
      "outputs": [
        {
          "internalType": "uint32",
          "name": "",
          "type": "uint32"
        }
      ],
      "stateMutability": "view",
      "type": "function"
    },
    {
      "inputs": [
        {
          "internalType": "bytes32",
          "name": "role",
          "type": "bytes32"
        },
        {
          "internalType": "address",
          "name": "account",
          "type": "address"
        }
      ],
      "name": "renounceRole",
      "outputs": [],
      "stateMutability": "nonpayable",
      "type": "function"
    },
    {
      "inputs": [
        {
          "internalType": "bytes32",
          "name": "role",
          "type": "bytes32"
        },
        {
          "internalType": "address",
          "name": "account",
          "type": "address"
        }
      ],
      "name": "revokeRole",
      "outputs": [],
      "stateMutability": "nonpayable",
      "type": "function"
    },
    {
      "inputs": [
        {
          "components": [
            {
              "internalType": "uint32",
              "name": "communityId",
              "type": "uint32"
            },
            {
              "internalType": "uint32",
              "name": "participantIndex",
              "type": "uint32"
            },
            {
              "internalType": "uint256",
              "name": "amountEarned",
              "type": "uint256"
            },
            {
              "internalType": "uint256",
              "name": "amountPaid",
              "type": "uint256"
            }
          ],
          "internalType": "struct IDecentralizedEnergyCommunity.ParticipantSettlement[]",
          "name": "_settlements",
          "type": "tuple[]"
        }
      ],
      "name": "settleCommunityBalances",
      "outputs": [],
      "stateMutability": "nonpayable",
      "type": "function"
    },
    {
      "inputs": [
        {
          "internalType": "bytes4",
          "name": "interfaceId",
          "type": "bytes4"
        }
      ],
      "name": "supportsInterface",
      "outputs": [
        {
          "internalType": "bool",
          "name": "",
          "type": "bool"
        }
      ],
      "stateMutability": "view",
      "type": "function"
    },
    {
      "inputs": [],
      "name": "token",
      "outputs": [
        {
          "internalType": "address",
          "name": "",
          "type": "address"
        }
      ],
      "stateMutability": "view",
      "type": "function"
    },
    {
      "inputs": [
        {
          "internalType": "uint256",
          "name": "_amount",
          "type": "uint256"
        }
      ],
      "name": "withdraw",
      "outputs": [],
      "stateMutability": "nonpayable",
      "type": "function"
    }
  ],
  "transactionHash": "0x3d5de52d9f4fc077b4444c0acceb875b05a7a2019e5c0bf72093843fa55c9948",
  "args": [
    "0xb28FC38392D28bfA952f1041A694A46647dce98b",
    "0x08210F9170F89Ab7658F0B5E3fF39b0E03C594D4"
  ],
  "numDeployments": 2,
  "solcInputHash": "04abf249dd385345dc6ef7a516379756",
  "bytecode": "0x60a06040523480156200001157600080fd5b506040516200264738038062002647833981016040819052620000349162000287565b6001600160a01b038216620000905760405162461bcd60e51b815260206004820152601d60248201527f496e76616c69642064656661756c742061646d696e206164647265737300000060448201526064015b60405180910390fd5b6001600160a01b038116620000e85760405162461bcd60e51b815260206004820152601560248201527f496e76616c696420746f6b656e20616464726573730000000000000000000000604482015260640162000087565b620000f5600083620001a7565b80600160046101000a8154816001600160a01b0302191690836001600160a01b03160217905550806001600160a01b031663313ce5676040518163ffffffff1660e01b8152600401602060405180830381865afa1580156200015b573d6000803e3d6000fd5b505050506040513d601f19601f82011682018060405250810190620001819190620002bf565b6200018e90600a620003fe565b6200019b9060646200040f565b60805250620004299050565b620001b38282620001b7565b5050565b620001c382826200023f565b620001b3576000828152602081815260408083206001600160a01b03851684529091529020805460ff19166001179055620001fb3390565b6001600160a01b0316816001600160a01b0316837f2f8788117e7eff1d82e926ec794901d17c78024a50270940304540a733656f0d60405160405180910390a45050565b6000828152602081815260408083206001600160a01b038516845290915290205460ff165b92915050565b80516001600160a01b03811681146200028257600080fd5b919050565b600080604083850312156200029b57600080fd5b620002a6836200026a565b9150620002b6602084016200026a565b90509250929050565b600060208284031215620002d257600080fd5b815160ff81168114620002e457600080fd5b9392505050565b634e487b7160e01b600052601160045260246000fd5b600181815b8085111562000342578160001904821115620003265762000326620002eb565b808516156200033457918102915b93841c939080029062000306565b509250929050565b6000826200035b5750600162000264565b816200036a5750600062000264565b81600181146200038357600281146200038e57620003ae565b600191505062000264565b60ff841115620003a257620003a2620002eb565b50506001821b62000264565b5060208310610133831016604e8410600b8410161715620003d3575081810a62000264565b620003df838362000301565b8060001904821115620003f657620003f6620002eb565b029392505050565b6000620002e460ff8416836200034a565b8082028115828204841417620002645762000264620002eb565b6080516121e662000461600039600081816102310152818161048d0152818161051701528181610552015261133001526121e66000f3fe608060405234801561001057600080fd5b50600436106101585760003560e01c80636c11b424116100c3578063d0f4a5371161007c578063d0f4a53714610349578063d547741f146103c3578063dcf7dc30146103d6578063e694f506146103e9578063fc0c546a146103fc578063fe1f0d991461042e57600080fd5b80636c11b424146102c457806391d14854146102eb578063a217fddf146102fe578063b831465a14610185578063bc9d874614610306578063cc77be7c1461033657600080fd5b806336568abe1161011557806336568abe14610206578063380c90e9146102195780633b09dba61461022c5780633e99e957146102535780634287c70f1461026657806368096da4146102a157600080fd5b806301ffc9a71461015d5780631d21898614610185578063248a9ca31461019b57806327e235e3146101be5780632e1a7d4d146101de5780632f2ff15d146101f3575b600080fd5b61017061016b366004611a62565b61043e565b60405190151581526020015b60405180910390f35b61018d606481565b60405190815260200161017c565b61018d6101a9366004611a8c565b60009081526020819052604090206001015490565b61018d6101cc366004611ac1565b60056020526000908152604090205481565b6101f16101ec366004611a8c565b610475565b005b6101f1610201366004611adc565b6105f6565b6101f1610214366004611adc565b610620565b6101f1610227366004611b68565b61069e565b61018d7f000000000000000000000000000000000000000000000000000000000000000081565b6101f1610261366004611bc2565b610afc565b61028c610274366004611ac1565b60036020526000908152604090205463ffffffff1681565b60405163ffffffff909116815260200161017c565b6101706102af366004611a8c565b60046020526000908152604090205460ff1681565b61018d7f3353a44949f91d24439ae38646edd9f8e8f962c89e497e452737db52cb1a730b81565b6101706102f9366004611adc565b610d68565b61018d600081565b610170610314366004611c11565b63ffffffff16600090815260026020526040902054600160201b900460ff1690565b6101f1610344366004611c2c565b610d91565b610393610357366004611c11565b60026020526000908152604090205463ffffffff8082169160ff600160201b820481169265010000000000830490911691600160301b90041684565b6040805163ffffffff9586168152931515602085015291151591830191909152909116606082015260800161017c565b6101f16103d1366004611adc565b6110cb565b6101f16103e4366004611c78565b6110f0565b61018d6103f7366004611ced565b6113d0565b60015461041690600160201b90046001600160a01b031681565b6040516001600160a01b03909116815260200161017c565b60015461028c9063ffffffff1681565b60006001600160e01b03198216637965db0b60e01b148061046f57506301ffc9a760e01b6001600160e01b03198316145b92915050565b3360009081526005602052604090205481906104b2907f000000000000000000000000000000000000000000000000000000000000000090611d25565b10156105055760405162461bcd60e51b815260206004820181905260248201527f496e73756666696369656e742062616c616e636520746f20776974686472617760448201526064015b60405180910390fd5b336000908152600560205260408120547f00000000000000000000000000000000000000000000000000000000000000006105408483611d25565b1061054d5782915061057a565b6105777f000000000000000000000000000000000000000000000000000000000000000084611d25565b91505b3360009081526005602052604081208054849290610599908490611d25565b90915550506001546105bc90600160201b90046001600160a01b03163384611458565b60405182815233907f058b581e2433b8b02263f5b0e5c2889fcb7b3495112884a3147619038fba46d89060200160405180910390a2505050565b600082815260208190526040902060010154610611816114bb565b61061b83836114c8565b505050565b6001600160a01b03811633146106905760405162461bcd60e51b815260206004820152602f60248201527f416363657373436f6e74726f6c3a2063616e206f6e6c792072656e6f756e636560448201526e103937b632b9903337b91039b2b63360891b60648201526084016104fc565b61069a828261154c565b5050565b81158015906106ae575060048211155b6106f55760405162461bcd60e51b8152602060048201526018602482015277496e76616c6964206e756d626572206f66206d657465727360401b60448201526064016104fc565b3360009081526003602052604090205463ffffffff16156107285760405162461bcd60e51b81526004016104fc90611d38565b60015461074790600160201b90046001600160a01b03163330846115b1565b3360009081526005602052604081208054839290610766908490611d7a565b909155505063ffffffff808516600090815260026020526040812080549092839160069161079b91600160301b900416611d8d565b91906101000a81548163ffffffff021916908363ffffffff1602179055905060648163ffffffff1611156108055760405162461bcd60e51b815260206004820152601160248201527010dbdb5b5d5b9a5d1e481a5cc8199d5b1b607a1b60448201526064016104fc565b815469ffffffff0000000000001916600160301b63ffffffff831602178255600060018084019082906108389085611db0565b63ffffffff90811682526020820192909252604001600090812085548154600160301b909104841667ffffffff00000001600160e01b03199091161733600160401b021767ffffffff000000001916600160201b9389169390930292909217825590915080805b63ffffffff8116881115610a6357600089898363ffffffff168181106108c7576108c7611dea565b6108dd9260206040909202019081019150611e0d565b60028111156108ee576108ee611dd4565b0361090b5760405162461bcd60e51b81526004016104fc90611e2a565b600460008a8a8463ffffffff1681811061092757610927611dea565b90506040020160200135815260200190815260200160002060009054906101000a900460ff161561096a5760405162461bcd60e51b81526004016104fc90611e56565b88888263ffffffff1681811061098257610982611dea565b63ffffffff84166000908152600188016020526040908190209102929092019190506109ae8282611e98565b506001905089898363ffffffff168181106109cb576109cb611dea565b6109e19260206040909202019081019150611e0d565b60028111156109f2576109f2611dd4565b03610a005760019250610a51565b600289898363ffffffff16818110610a1a57610a1a611dea565b610a309260206040909202019081019150611e0d565b6002811115610a4157610a41611dd4565b03610a51578215610a5157600191505b80610a5b81611d8d565b91505061089f565b50845465ffff000000001916650100000000008315150264ff00000000191617600160201b821515021785553360008181526003602052604090819020805463ffffffff191663ffffffff8d1690811790915590517f0e7b0cc494744200cf3b82b8fdfd6cdcca0a6057c60c4741652085aad22e2bd990610ae9908c908c908c90611f15565b60405180910390a3505050505050505050565b63ffffffff80841660009081526002602090815260408083208685168452600181019092529091208054919290916004600160201b90910490911610610b9d5760405162461bcd60e51b815260206004820152603060248201527f5061727469636970616e7420616c726561647920686173206d6178696d756d2060448201526f6e756d626572206f66206d657465727360801b60648201526084016104fc565b3360009081526003602052604090205463ffffffff1615610bd05760405162461bcd60e51b81526004016104fc90611d38565b6000610bdf6020850185611e0d565b6002811115610bf057610bf0611dd4565b03610c0d5760405162461bcd60e51b81526004016104fc90611e2a565b60208084013560009081526004909152604090205460ff1615610c425760405162461bcd60e51b81526004016104fc90611e56565b8054600160201b900463ffffffff16600090815260018201602052604090208390610c6d8282611e98565b50508054600160201b900463ffffffff16816004610c8a83611d8d565b91906101000a81548163ffffffff021916908363ffffffff1602179055505060008060016002811115610cbf57610cbf611dd4565b610ccc6020870187611e0d565b6002811115610cdd57610cdd611dd4565b03610ceb5760019150610d1a565b6002610cfa6020870187611e0d565b6002811115610d0b57610d0b611dd4565b03610d1a578115610d1a575060015b8563ffffffff168763ffffffff167f69b5c8ec0badd6d744b095e441ec4c52fb6489d64a89b117c7d19ca2d4660aa087604051610d579190611f61565b60405180910390a350505050505050565b6000918252602082815260408084206001600160a01b0393909316845291905290205460ff1690565b8115801590610da1575060048211155b610de85760405162461bcd60e51b8152602060048201526018602482015277496e76616c6964206e756d626572206f66206d657465727360401b60448201526064016104fc565b600154610e0790600160201b90046001600160a01b03163330846115b1565b3360009081526005602052604081208054839290610e26908490611d7a565b909155505060018054600091908290610e449063ffffffff16611d8d565b82546101009290920a63ffffffff818102199093168284169182021790935560008381526002602090815260408083208054600160301b69ffffffff00ffffffffff19909116909717871780825584805260018201909352908320805496909204851667ffffffff00000001600160e01b03199096169590951733600160401b021767ffffffff000000001916600160201b94891694909402939093178355909350805b63ffffffff811687111561105757600088888363ffffffff16818110610f1057610f10611dea565b610f269260206040909202019081019150611e0d565b6002811115610f3757610f37611dd4565b03610f545760405162461bcd60e51b81526004016104fc90611e2a565b6004600089898463ffffffff16818110610f7057610f70611dea565b90506040020160200135815260200190815260200160002060009054906101000a900460ff1615610fb35760405162461bcd60e51b81526004016104fc90611e56565b87878263ffffffff16818110610fcb57610fcb611dea565b63ffffffff8416600090815260018701602052604090819020910292909201919050610ff78282611e98565b506001905088888363ffffffff1681811061101457611014611dea565b61102a9260206040909202019081019150611e0d565b600281111561103b5761103b611dd4565b0361104557600191505b8061104f81611d8d565b915050610ee8565b50825465ff0000000000191665010000000000821515021783553360008181526003602052604090819020805463ffffffff191663ffffffff881690811790915590517f8994cdd9e9f0bfc632f16b538a0deaf7ed4bf86caf4d1f44121722ee63256f3190610d57908b908b908b90611f15565b6000828152602081905260409020600101546110e6816114bb565b61061b838361154c565b7f3353a44949f91d24439ae38646edd9f8e8f962c89e497e452737db52cb1a730b61111a816114bb565b6040805160808101825260008082526020820181905291810182905260608101829052908060648511156111875760405162461bcd60e51b8152602060048201526014602482015273546f6f206d616e7920736574746c656d656e747360601b60448201526064016104fc565b60005b63ffffffff81168611156111fe5786868263ffffffff168181106111b0576111b0611dea565b9050608002018036038101906111c69190611f85565b93508360400151836111d89190611d7a565b92508360600151826111ea9190611d7a565b9150806111f681611d8d565b91505061118a565b5080821461125d5760405162461bcd60e51b815260206004820152602660248201527f416d6f756e742070616964206e6f7420657175616c20746f20616d6f756e742060448201526519585c9b995960d21b60648201526084016104fc565b60005b63ffffffff811686111561138e5786868263ffffffff1681811061128657611286611dea565b90506080020180360381019061129c9190611f85565b805163ffffffff90811660009081526002602090815260408083208286015190941683526001840182528083208054600160401b90046001600160a01b03168452600590925291829020546060850151928501519498509293909291906113039083611d7a565b61130d9190611d25565b8254600160401b90046001600160a01b03166000908152600560205260409020557f000000000000000000000000000000000000000000000000000000000000000081101561136657815460ff60e01b19168255611378565b815460ff60e01b1916600160e01b1782555b505050808061138690611d8d565b915050611260565b507f640bd05d2caf2e509470336053d44462c7ea6caf329572ddc64ff04547804cf486866040516113c0929190612005565b60405180910390a1505050505050565b60008161140e5760405162461bcd60e51b815260206004820152600c60248201526b125b9d985b1a59081cd85b1d60a21b60448201526064016104fc565b6040516bffffffffffffffffffffffff193060601b166020820152603481018490526054810183905260740160405160208183030381529060405280519060200120905092915050565b6040516001600160a01b03831660248201526044810182905261061b90849063a9059cbb60e01b906064015b60408051601f198184030181529190526020810180516001600160e01b03166001600160e01b0319909316929092179091526115ef565b6114c581336116c4565b50565b6114d28282610d68565b61069a576000828152602081815260408083206001600160a01b03851684529091529020805460ff191660011790556115083390565b6001600160a01b0316816001600160a01b0316837f2f8788117e7eff1d82e926ec794901d17c78024a50270940304540a733656f0d60405160405180910390a45050565b6115568282610d68565b1561069a576000828152602081815260408083206001600160a01b0385168085529252808320805460ff1916905551339285917ff6391f5c32d9c69d2a47ea670b442974b53935d1edc7fd64eb21e047a839171b9190a45050565b6040516001600160a01b03808516602483015283166044820152606481018290526115e99085906323b872dd60e01b90608401611484565b50505050565b6000611644826040518060400160405280602081526020017f5361666545524332303a206c6f772d6c6576656c2063616c6c206661696c6564815250856001600160a01b031661171d9092919063ffffffff16565b90508051600014806116655750808060200190518101906116659190612078565b61061b5760405162461bcd60e51b815260206004820152602a60248201527f5361666545524332303a204552433230206f7065726174696f6e20646964206e6044820152691bdd081cdd58d8d9595960b21b60648201526084016104fc565b6116ce8282610d68565b61069a576116db81611734565b6116e6836020611746565b6040516020016116f79291906120be565b60408051601f198184030181529082905262461bcd60e51b82526104fc91600401612133565b606061172c84846000856118e9565b949350505050565b606061046f6001600160a01b03831660145b60606000611755836002612166565b611760906002611d7a565b67ffffffffffffffff81111561177857611778611f6f565b6040519080825280601f01601f1916602001820160405280156117a2576020820181803683370190505b509050600360fc1b816000815181106117bd576117bd611dea565b60200101906001600160f81b031916908160001a905350600f60fb1b816001815181106117ec576117ec611dea565b60200101906001600160f81b031916908160001a9053506000611810846002612166565b61181b906001611d7a565b90505b6001811115611893576f181899199a1a9b1b9c1cb0b131b232b360811b85600f166010811061184f5761184f611dea565b1a60f81b82828151811061186557611865611dea565b60200101906001600160f81b031916908160001a90535060049490941c9361188c8161217d565b905061181e565b5083156118e25760405162461bcd60e51b815260206004820181905260248201527f537472696e67733a20686578206c656e67746820696e73756666696369656e7460448201526064016104fc565b9392505050565b60608247101561194a5760405162461bcd60e51b815260206004820152602660248201527f416464726573733a20696e73756666696369656e742062616c616e636520666f6044820152651c8818d85b1b60d21b60648201526084016104fc565b600080866001600160a01b031685876040516119669190612194565b60006040518083038185875af1925050503d80600081146119a3576040519150601f19603f3d011682016040523d82523d6000602084013e6119a8565b606091505b50915091506119b9878383876119c4565b979650505050505050565b60608315611a33578251600003611a2c576001600160a01b0385163b611a2c5760405162461bcd60e51b815260206004820152601d60248201527f416464726573733a2063616c6c20746f206e6f6e2d636f6e747261637400000060448201526064016104fc565b508161172c565b61172c8383815115611a485781518083602001fd5b8060405162461bcd60e51b81526004016104fc9190612133565b600060208284031215611a7457600080fd5b81356001600160e01b0319811681146118e257600080fd5b600060208284031215611a9e57600080fd5b5035919050565b80356001600160a01b0381168114611abc57600080fd5b919050565b600060208284031215611ad357600080fd5b6118e282611aa5565b60008060408385031215611aef57600080fd5b82359150611aff60208401611aa5565b90509250929050565b803563ffffffff81168114611abc57600080fd5b60008083601f840112611b2e57600080fd5b50813567ffffffffffffffff811115611b4657600080fd5b6020830191508360208260061b8501011115611b6157600080fd5b9250929050565b60008060008060608587031215611b7e57600080fd5b611b8785611b08565b9350602085013567ffffffffffffffff811115611ba357600080fd5b611baf87828801611b1c565b9598909750949560400135949350505050565b60008060008385036080811215611bd857600080fd5b611be185611b08565b9350611bef60208601611b08565b92506040603f1982011215611c0357600080fd5b506040840190509250925092565b600060208284031215611c2357600080fd5b6118e282611b08565b600080600060408486031215611c4157600080fd5b833567ffffffffffffffff811115611c5857600080fd5b611c6486828701611b1c565b909790965060209590950135949350505050565b60008060208385031215611c8b57600080fd5b823567ffffffffffffffff80821115611ca357600080fd5b818501915085601f830112611cb757600080fd5b813581811115611cc657600080fd5b8660208260071b8501011115611cdb57600080fd5b60209290920196919550909350505050565b60008060408385031215611d0057600080fd5b50508035926020909101359150565b634e487b7160e01b600052601160045260246000fd5b8181038181111561046f5761046f611d0f565b60208082526022908201527f5061727469636970616e7420616c726561647920696e206120636f6d6d756e69604082015261747960f01b606082015260800190565b8082018082111561046f5761046f611d0f565b600063ffffffff808316818103611da657611da6611d0f565b6001019392505050565b63ffffffff828116828216039080821115611dcd57611dcd611d0f565b5092915050565b634e487b7160e01b600052602160045260246000fd5b634e487b7160e01b600052603260045260246000fd5b600381106114c557600080fd5b600060208284031215611e1f57600080fd5b81356118e281611e00565b602080825260129082015271496e76616c6964206d65746572207479706560701b604082015260600190565b60208082526022908201527f4d65746572207769746820746869732045414e20616c72656164792065786973604082015261747360f01b606082015260800190565b8135611ea381611e00565b60038110611ec157634e487b7160e01b600052602160045260246000fd5b60ff1982541660ff8216811783555050602082013560018201555050565b8035611eea81611e00565b60038110611f0857634e487b7160e01b600052602160045260246000fd5b8252602090810135910152565b60408082528181018490526000908560608401835b87811015611f4c57611f3c8284611edf565b9183019190830190600101611f2a565b50809350505050826020830152949350505050565b6040810161046f8284611edf565b634e487b7160e01b600052604160045260246000fd5b600060808284031215611f9757600080fd5b6040516080810181811067ffffffffffffffff82111715611fc857634e487b7160e01b600052604160045260246000fd5b604052611fd483611b08565b8152611fe260208401611b08565b602082015260408301356040820152606083013560608201528091505092915050565b6020808252818101839052600090604080840186845b8781101561206b5763ffffffff8061203284611b08565b16845280612041878501611b08565b1684870152508184013584840152606080830135908401526080928301929091019060010161201b565b5090979650505050505050565b60006020828403121561208a57600080fd5b815180151581146118e257600080fd5b60005b838110156120b557818101518382015260200161209d565b50506000910152565b7f416363657373436f6e74726f6c3a206163636f756e74200000000000000000008152600083516120f681601785016020880161209a565b7001034b99036b4b9b9b4b733903937b6329607d1b601791840191820152835161212781602884016020880161209a565b01602801949350505050565b602081526000825180602084015261215281604085016020870161209a565b601f01601f19169190910160400192915050565b808202811582820484141761046f5761046f611d0f565b60008161218c5761218c611d0f565b506000190190565b600082516121a681846020870161209a565b919091019291505056fea2646970667358221220c1778f9577e829c1391be94ca453a7311941a6e9b8e590bc48783d84ad4e434664736f6c63430008110033",
  "devdoc": {
    "kind": "dev",
    "methods": {
      "constructor": {
        "params": {
          "_defaultAdmin": "This address will have the `DEFAULT_ADMIN_ROLE`",
          "_token": "The address of the token contract that will be used for escrow and settlement"
        }
      },
      "generateHash(uint256,bytes32)": {
        "details": "This function is used to generate a hash of the meter EAN code",
        "params": {
          "salt": "the player's salt",
          "value": "- the player's address"
        },
        "returns": {
          "generatedHash": "the hashed data"
        }
      },
      "getRoleAdmin(bytes32)": {
        "details": "Returns the admin role that controls `role`. See {grantRole} and {revokeRole}. To change a role's admin, use {_setRoleAdmin}."
      },
      "grantRole(bytes32,address)": {
        "details": "Grants `role` to `account`. If `account` had not been already granted `role`, emits a {RoleGranted} event. Requirements: - the caller must have ``role``'s admin role. May emit a {RoleGranted} event."
      },
      "hasRole(bytes32,address)": {
        "details": "Returns `true` if `account` has been granted `role`."
      },
      "renounceRole(bytes32,address)": {
        "details": "Revokes `role` from the calling account. Roles are often managed via {grantRole} and {revokeRole}: this function's purpose is to provide a mechanism for accounts to lose their privileges if they are compromised (such as when a trusted device is misplaced). If the calling account had been revoked `role`, emits a {RoleRevoked} event. Requirements: - the caller must be `account`. May emit a {RoleRevoked} event."
      },
      "revokeRole(bytes32,address)": {
        "details": "Revokes `role` from `account`. If `account` had been granted `role`, emits a {RoleRevoked} event. Requirements: - the caller must have ``role``'s admin role. May emit a {RoleRevoked} event."
      },
      "settleCommunityBalances((uint32,uint32,uint256,uint256)[])": {
        "params": {
          "_settlements": "The settlements to be updated"
        }
      },
      "supportsInterface(bytes4)": {
        "details": "See {IERC165-supportsInterface}."
      }
    },
    "title": "DecentralizedEnergyCommunity",
    "version": 1
  },
  "userdoc": {
    "kind": "user",
    "methods": {
      "constructor": {
        "notice": "Constructor of the contract"
      },
      "generateHash(uint256,bytes32)": {
        "notice": "Generate hash of a value using the value, a salt, and the current contract address"
      },
      "settleCommunityBalances((uint32,uint32,uint256,uint256)[])": {
        "notice": "Seetle the balances of the participants in the community"
      }
    },
    "notice": "This contract is the main contract for the Decentralized Energy Community",
    "version": 1
  },
  "storageLayout": {
    "storage": [
      {
        "astId": 24,
        "contract": "contracts/DecentralizedEngergyCommunity.sol:DecentralizedEnergyCommunity",
        "label": "_roles",
        "offset": 0,
        "slot": "0",
        "type": "t_mapping(t_bytes32,t_struct(RoleData)19_storage)"
      },
      {
        "astId": 3297,
        "contract": "contracts/DecentralizedEngergyCommunity.sol:DecentralizedEnergyCommunity",
        "label": "communityIds",
        "offset": 0,
        "slot": "1",
        "type": "t_uint32"
      },
      {
        "astId": 3299,
        "contract": "contracts/DecentralizedEngergyCommunity.sol:DecentralizedEnergyCommunity",
        "label": "token",
        "offset": 4,
        "slot": "1",
        "type": "t_address"
      },
      {
        "astId": 3304,
        "contract": "contracts/DecentralizedEngergyCommunity.sol:DecentralizedEnergyCommunity",
        "label": "communities",
        "offset": 0,
        "slot": "2",
        "type": "t_mapping(t_uint32,t_struct(Community)4183_storage)"
      },
      {
        "astId": 3308,
        "contract": "contracts/DecentralizedEngergyCommunity.sol:DecentralizedEnergyCommunity",
        "label": "participantAddressToCommunity",
        "offset": 0,
        "slot": "3",
        "type": "t_mapping(t_address,t_uint32)"
      },
      {
        "astId": 3312,
        "contract": "contracts/DecentralizedEngergyCommunity.sol:DecentralizedEnergyCommunity",
        "label": "existingMeters",
        "offset": 0,
        "slot": "4",
        "type": "t_mapping(t_bytes32,t_bool)"
      },
      {
        "astId": 3316,
        "contract": "contracts/DecentralizedEngergyCommunity.sol:DecentralizedEnergyCommunity",
        "label": "balances",
        "offset": 0,
        "slot": "5",
        "type": "t_mapping(t_address,t_uint256)"
      }
    ],
    "types": {
      "t_address": {
        "encoding": "inplace",
        "label": "address",
        "numberOfBytes": "20"
      },
      "t_bool": {
        "encoding": "inplace",
        "label": "bool",
        "numberOfBytes": "1"
      },
      "t_bytes32": {
        "encoding": "inplace",
        "label": "bytes32",
        "numberOfBytes": "32"
      },
      "t_enum(MeterType)4216": {
        "encoding": "inplace",
        "label": "enum IDecentralizedEnergyCommunity.MeterType",
        "numberOfBytes": "1"
      },
      "t_mapping(t_address,t_bool)": {
        "encoding": "mapping",
        "key": "t_address",
        "label": "mapping(address => bool)",
        "numberOfBytes": "32",
        "value": "t_bool"
      },
      "t_mapping(t_address,t_uint256)": {
        "encoding": "mapping",
        "key": "t_address",
        "label": "mapping(address => uint256)",
        "numberOfBytes": "32",
        "value": "t_uint256"
      },
      "t_mapping(t_address,t_uint32)": {
        "encoding": "mapping",
        "key": "t_address",
        "label": "mapping(address => uint32)",
        "numberOfBytes": "32",
        "value": "t_uint32"
      },
      "t_mapping(t_bytes32,t_bool)": {
        "encoding": "mapping",
        "key": "t_bytes32",
        "label": "mapping(bytes32 => bool)",
        "numberOfBytes": "32",
        "value": "t_bool"
      },
      "t_mapping(t_bytes32,t_struct(RoleData)19_storage)": {
        "encoding": "mapping",
        "key": "t_bytes32",
        "label": "mapping(bytes32 => struct AccessControl.RoleData)",
        "numberOfBytes": "32",
        "value": "t_struct(RoleData)19_storage"
      },
      "t_mapping(t_uint32,t_struct(Community)4183_storage)": {
        "encoding": "mapping",
        "key": "t_uint32",
        "label": "mapping(uint32 => struct IDecentralizedEnergyCommunity.Community)",
        "numberOfBytes": "32",
        "value": "t_struct(Community)4183_storage"
      },
      "t_mapping(t_uint32,t_struct(Meter)4212_storage)": {
        "encoding": "mapping",
        "key": "t_uint32",
        "label": "mapping(uint32 => struct IDecentralizedEnergyCommunity.Meter)",
        "numberOfBytes": "32",
        "value": "t_struct(Meter)4212_storage"
      },
      "t_mapping(t_uint32,t_struct(Participant)4197_storage)": {
        "encoding": "mapping",
        "key": "t_uint32",
        "label": "mapping(uint32 => struct IDecentralizedEnergyCommunity.Participant)",
        "numberOfBytes": "32",
        "value": "t_struct(Participant)4197_storage"
      },
      "t_struct(Community)4183_storage": {
        "encoding": "inplace",
        "label": "struct IDecentralizedEnergyCommunity.Community",
        "members": [
          {
            "astId": 4171,
            "contract": "contracts/DecentralizedEngergyCommunity.sol:DecentralizedEnergyCommunity",
            "label": "id",
            "offset": 0,
            "slot": "0",
            "type": "t_uint32"
          },
          {
            "astId": 4173,
            "contract": "contracts/DecentralizedEngergyCommunity.sol:DecentralizedEnergyCommunity",
            "label": "active",
            "offset": 4,
            "slot": "0",
            "type": "t_bool"
          },
          {
            "astId": 4175,
            "contract": "contracts/DecentralizedEngergyCommunity.sol:DecentralizedEnergyCommunity",
            "label": "hasProducer",
            "offset": 5,
            "slot": "0",
            "type": "t_bool"
          },
          {
            "astId": 4177,
            "contract": "contracts/DecentralizedEngergyCommunity.sol:DecentralizedEnergyCommunity",
            "label": "participantCount",
            "offset": 6,
            "slot": "0",
            "type": "t_uint32"
          },
          {
            "astId": 4182,
            "contract": "contracts/DecentralizedEngergyCommunity.sol:DecentralizedEnergyCommunity",
            "label": "participants",
            "offset": 0,
            "slot": "1",
            "type": "t_mapping(t_uint32,t_struct(Participant)4197_storage)"
          }
        ],
        "numberOfBytes": "64"
      },
      "t_struct(Meter)4212_storage": {
        "encoding": "inplace",
        "label": "struct IDecentralizedEnergyCommunity.Meter",
        "members": [
          {
            "astId": 4209,
            "contract": "contracts/DecentralizedEngergyCommunity.sol:DecentralizedEnergyCommunity",
            "label": "meterType",
            "offset": 0,
            "slot": "0",
            "type": "t_enum(MeterType)4216"
          },
          {
            "astId": 4211,
            "contract": "contracts/DecentralizedEngergyCommunity.sol:DecentralizedEnergyCommunity",
            "label": "meterEAN",
            "offset": 0,
            "slot": "1",
            "type": "t_bytes32"
          }
        ],
        "numberOfBytes": "64"
      },
      "t_struct(Participant)4197_storage": {
        "encoding": "inplace",
        "label": "struct IDecentralizedEnergyCommunity.Participant",
        "members": [
          {
            "astId": 4185,
            "contract": "contracts/DecentralizedEngergyCommunity.sol:DecentralizedEnergyCommunity",
            "label": "index",
            "offset": 0,
            "slot": "0",
            "type": "t_uint32"
          },
          {
            "astId": 4187,
            "contract": "contracts/DecentralizedEngergyCommunity.sol:DecentralizedEnergyCommunity",
            "label": "meterCount",
            "offset": 4,
            "slot": "0",
            "type": "t_uint32"
          },
          {
            "astId": 4189,
            "contract": "contracts/DecentralizedEngergyCommunity.sol:DecentralizedEnergyCommunity",
            "label": "wallet",
            "offset": 8,
            "slot": "0",
            "type": "t_address"
          },
          {
            "astId": 4191,
            "contract": "contracts/DecentralizedEngergyCommunity.sol:DecentralizedEnergyCommunity",
            "label": "active",
            "offset": 28,
            "slot": "0",
            "type": "t_bool"
          },
          {
            "astId": 4196,
            "contract": "contracts/DecentralizedEngergyCommunity.sol:DecentralizedEnergyCommunity",
            "label": "meters",
            "offset": 0,
            "slot": "1",
            "type": "t_mapping(t_uint32,t_struct(Meter)4212_storage)"
          }
        ],
        "numberOfBytes": "64"
      },
      "t_struct(RoleData)19_storage": {
        "encoding": "inplace",
        "label": "struct AccessControl.RoleData",
        "members": [
          {
            "astId": 16,
            "contract": "contracts/DecentralizedEngergyCommunity.sol:DecentralizedEnergyCommunity",
            "label": "members",
            "offset": 0,
            "slot": "0",
            "type": "t_mapping(t_address,t_bool)"
          },
          {
            "astId": 18,
            "contract": "contracts/DecentralizedEngergyCommunity.sol:DecentralizedEnergyCommunity",
            "label": "adminRole",
            "offset": 0,
            "slot": "1",
            "type": "t_bytes32"
          }
        ],
        "numberOfBytes": "64"
      },
      "t_uint256": {
        "encoding": "inplace",
        "label": "uint256",
        "numberOfBytes": "32"
      },
      "t_uint32": {
        "encoding": "inplace",
        "label": "uint32",
        "numberOfBytes": "4"
      }
    }
  }
}